:020000040800F2
:1000000038070020CD010008D1010008D301000805
:10001000D5010008D7010008D90100080000000040
:10002000000000000000000000000000DB010008EC
:10003000DD01000800000000DF010008E101000808
:10004000E3010008E3010008E3010008E301000800
:10005000E3010008E3010008E3010008E3010008F0
:10006000E3010008E3010008E3010008E3010008E0
:10007000E3010008E3010008E3010008E3010008D0
:10008000E3010008E3010008E3010008E3010008C0
:10009000E3010008E3010008E3010008E3010008B0
:1000A000E3010008E3010008E3010008E3010008A0
:1000B000E3010008D9080008E3010008E301000893
:1000C000E3010008E3010008E3010008E301000880
:1000D000E301000835090008E3010008E301000816
:1000E00055030008E3010008E3010008E3010008EC
:1000F000E3010008E3010008E3010008E301000850
:10010000E3010008E3010008E3010008E30100083F
:10011000E3010008E3010008E3010008E30100082F
:10012000E3010008E3010008E3010008E30100081F
:1001300000F002F800F03AF80AA090E8000C8244BF
:100140008344AAF10107DA4501D100F02FF8AFF29C
:10015000090EBAE80F0013F0010F18BFFB1A43F0A5
:1001600001031847D8100000F8100000103A24BF0F
:1001700078C878C1FAD8520724BF30C830C144BF0C
:1001800004680C607047000000230024002500264E
:10019000103A28BF78C1FBD8520728BF30C148BFEA
:1001A0000B6070471FB51FBD10B510BD00F02FF8D4
:1001B0001146FFF7F7FF00F09DFC00F04DF803B487
:1001C000FFF7F2FF03BC00F0F7FB00000848004710
:1001D000FEE7FEE7FEE7FEE7FEE7FEE7FEE7FEE7F7
:1001E000FEE7FEE703480449044A054B7047000058
:1001F00031010008380100203807002038030020B2
:100200003803002070477047704770477047754645
:1002100000F02CF8AE4605006946534620F0070072
:10022000854618B020B5FFF7DDFFBDE820404FF050
:1002300000064FF000074FF000084FF0000B21F0D0
:100240000701AC46ACE8C009ACE8C009ACE8C0099D
:10025000ACE8C0098D46704710B50446AFF3008086
:100260002046BDE81040FFF7AABF000000487047D5
:10027000D800002040F283304FF080418886088704
:1002800001200749086000200649C1F8A0010120AB
:1002900003490831086000200249C1F8A8017047ED
:1002A0009C812142008021421E48806940F0080064
:1002B0001C4988611C48006820F070401A49086099
:1002C0000846006840F040500860081D006820F0B3
:1002D0000F00091D08600846006840F00300086030
:1002E0000846006820F0F00008600846006840F00A
:1002F000300008600846006820F470600860084616
:10030000006840F4407008600846006820F07060A3
:1003100008600846006840F040700860012003490A
:100320000860704700100240000C0140B881214273
:100330000120064908600649C1F8A00103490831B7
:1003400008600349C1F8A801704700009C81214260
:100350000080214210B506480068012803D101E061
:10036000FFF7E6FFFCE74FF480500249086010BD3C
:10037000308121421404014010B502220C210120D9
:1003800000F008F8022328220021184600F072F934
:1003900010BD000070B504460B46CE1701EB9676F3
:1003A000C6F38700CE1701EB9676B610A1EB860652
:1003B000B606350E1C4B9B6943F001031A4EB36120
:1003C0004FEAB63353F820300F26AE40B343174EF2
:1003D00046F82030334653F8203004FA05F61E4321
:1003E000124B43F82060124B1B6801268E403343AA
:1003F0000F4E336002F0010343B10D4B0C331B6809
:1004000001268E4033430A4E0C36336002F002035D
:1004100043B1074B08331E6801238B401E43044B36
:1004200008331E6070BD000000100240080001404B
:100430000004014001464906084A926942F001025F
:10044000064B9A61064A526822F0E062044B5A60F9
:100450001A4652680A435A60704700000010024072
:100460000000014010B51948806940F004001749A8
:1004700088610846806940F0100088610120FFF71C
:10048000D9FF1348006820F0704011490860084601
:10049000006840F0004008600D480830006840F4F3
:1004A00000400B49083108600A48006820F47000D9
:1004B000084908600846006840F4000008600846E3
:1004C000C06840F02000C86010BD0000001002406D
:1004D000040801400010014010B5044614B1012089
:1004E0001849087017480078E8B117488068C0F3C9
:1004F000401020B115480068C0F3C03098B90A20F8
:1005000000F090FA00200F4908700F488068C0F38F
:10051000401008B9012010BD0C480068C0F3C0307D
:1005200070B90220F7E708488068C0F3401038B17E
:1005300006480068C0F3C03010B1012001490870BE
:100540000020E8E70A0000200010014008080140F0
:100550001848806940F0040016498861084680699F
:1005600040F0200088611448006820F00F00124914
:1005700008600846006840F0030008600E48083034
:10058000006840F480700C49083108600B4800682E
:1005900020F47060094908600846006840F4407023
:1005A000086006480C30006840F0040003490C3134
:1005B0000860704700100240040801400014014028
:1005C000012806D140F267118207918640F28331FB
:1005D0001187022806D140F267114207918640F246
:1005E000BB2111870121074A11600021064AC2F888
:1005F000A0110121034A083211600021024AC2F809
:10060000A81170479C8121420080214200B5002042
:1006100015490861C8601420486100208861C861DC
:100620000846006840F001000860084640680F492D
:1006300008400D494860084600680D4908400A49CD
:1006400008600846006820F480200860084640687A
:1006500020F4FE0048600020886000214FF0006018
:1006600000F058F800BD0000001002400000FFF844
:10067000FFFFF6FE2DE9F0410746884614461D4669
:10068000284600F033F8C5F1040007FA00F60F2001
:10069000284100EA0800064306F00F06E21704EBC3
:1006A000D2625211920002F1E022D2F800212146DA
:1006B000E31704EBD3635B11A4EB431C012303FAA0
:1006C0000CF31A432046E31704EBD3635B119B0042
:1006D00003F1E023C3F800210348005D40EA06105F
:1006E00001490855BDE8F08100E400E00146072318
:1006F00023EA01021202054B18684FF6FF03184067
:10070000034B18431043014B186070470CED00E099
:100710000000FA05024A0A400243024B1A60704781
:1007200080FFFF1F08ED00E0012806D140F2833171
:100730008207918640F267111187022806D140F2A4
:10074000BB214207918640F2671111870121074AB8
:1007500011600021064AC2F8A0110121034A0832A3
:1007600011600021024AC2F8A81170479C81214201
:100770000080214210B504460A48006801280AD1C9
:100780002046FFF7D1FF4FF4AF7000F04BF9204641
:10079000FFF716FF05E00348006810B92046FFF791
:1007A0000FFF10BD2C81214230B504460025FFF714
:1007B0002DFF1F48006840F480301D49086000BFCD
:1007C0001B480068400C0028FAD04FF4806018499C
:1007D0004860A01EC4B20846406840EA84404860B1
:1007E0000846406840F4803048601248006840F095
:1007F0003200104908600E48006840F080700C49D3
:10080000086000BF0A480068400E0028FAD0084877
:10081000406840F002000649486005E0044840682E
:10082000C0F3870505F00305022DF7D130BD0000A8
:100830000010024000200240254AD26942F0010225
:10084000234BDA611A46926942F004029A61214A06
:10085000126822F00F021F4B1A601A46126842F00B
:100860000B021A60DA0490851185128B42F0600247
:10087000DB041A831A46128B42F008021A831A46C6
:10088000128C42F001021A84124A126822F0E0022D
:10089000104B1A601A46126842F0B0021A60DA046D
:1008A000128B42F4C042DB041A831A46128B42F4C4
:1008B00000621A831A46128C42F010021A848022B7
:1008C0001A80D205128842F001021A807047000097
:1008D00000100240000801400848008800F00100B4
:1008E00020B107480068401C05490860034800889B
:1008F00020F001000149088070470000100400400A
:100900000C000020094AD26942F00202074BDA616A
:10091000074A1080121F1180054A203A128822F0DF
:100920000102034B203B1A80704700000010024078
:100930002C0400401D49098801F0200111B31B4916
:10094000091D0988C8B21A49098801F40041C9B9CA
:100950001749098801F4804161B10A2803D00021B8
:10096000134A118020E01249098841F40041104ADD
:10097000118019E00D2806D10D49098841F4804104
:100980000B4A118010E00A490988C1F30D01094A98
:10099000505407490988491C054A118011460988A5
:1009A000C72901DD00211180704700000038014097
:1009B0000800002010000020014600BF7047000022
:1009C0000648008820F001000449088000200449FE
:1009D000086002492431088070470000000400408C
:1009E0000C0000204FF0E021096921F004014FF0D4
:1009F000E0221161C21700EB5272C2F3C702074B2B
:100A00001A701946097801EB4102C2EBC1114FF689
:100A1000FF7202EAC101024A118070470000002003
:100A20000200002001460D4A12884A434FF0E0239D
:100A30005A6100229A6101221A6100BF4FF0E02240
:100A4000106900F001021AB100F48032002AF5D0DA
:100A500000224FF0E0231A619A61704702000020E3
:100A600001460D4A12784A434FF0E0235A610022B2
:100A70009A6101221A6100BF4FF0E022106900F074
:100A800001021AB100F48032002AF5D000224FF0A2
:100A9000E0231A619A6170470000002070B50024BD
:100AA000002503E000F006F804446D1C012DF9DB7D
:100AB000204670BD10B5002400F06AF800BF0B4856
:100AC00000680028FBD00A48008840F0010008496F
:100AD000088000BF054800680128FBD00448243086
:100AE0000488FFF76DFF204610BD000018812142E9
:100AF0000004004000250920FFF756FE4820FFF7BC
:100B000071FF4FF41651482000F056F8FFF720FD12
:100B1000002140F28330FFF78FFEFFF7C5FBFFF7A0
:100B2000A1FC00F0B7F818E00020FFF7D5FC012881
:100B300007D140F283304FF0804188860887012535
:100B40000CE00020FFF7C8FC022806D14FF4FA7031
:100B5000010788860887022500E0E5E700BFFFF768
:100B600089FB4FF44870FFF75DFFFFF705FC0EE0CF
:100B70002846FFF7FFFDFFF791FF0446912C05DBA8
:100B80009B2C03DCFFF7D4FB00BFFEE700BFEFE7C1
:100B900010B50848006840F020000649086014209D
:100BA000FFF75EFF0348006820F02000014908605D
:100BB00010BD00000C0C01402DE9F05F05460E460B
:100BC000300100F0DBF981462E4905FB01F000F011
:100BD000D5F98246494600F0EFF80746384600F05E
:100BE000ADF984B2204600F0C9F98346394600F0D9
:100BF000A5FA82464FF0834100F0D4F9814600F017
:100C00009DF980464FF6FF7000EA041404EB0800DB
:100C100084B21D48806940F004001B498861084681
:100C2000806940F4804088611848006820F47F6043
:100C3000164908600846006840F40B6008601248D6
:100C4000C06840F480401049C8600846C06820F47D
:100C50008040C8600E480480001D008842F20C01EC
:100C600008430B49091D08800846008840F0200011
:100C700008800223252203210846FFF7FBFCBDE87C
:100C8000F09F000040420F000010024004080140A5
:100C90000838014000B54FF4AF7141F28830FFF7DA
:100CA00031FE1248806940F0080010498861104800
:100CB000006820F470000E4908600846006840F49F
:100CC000401008600A480C30006820F020000849F5
:100CD0000C3108600648006820F070600449086024
:100CE0000846006840F08060086000BD00100240C7
:100CF000000C014090EA010F48BF81F0004100F173
:100D00002E82421A3CBF801A89184FEAD0524FF007
:100D10007F4C1CEA410FA2EBD15318BF9CEA026F33
:100D200000F03B804FF0004C4CEA00204CEA0121DF
:100D300021FA03FC10EB0C0C1ED202F1FF325FEA29
:100D40001C2040EBC25038BF70471CF07F0F4FEAA9
:100D5000400C18BFBCF17F4F38BF7047C3F1200370
:100D6000994008BF20F00100BCF17F4F38BF7047A9
:100D7000A0F1C04000F0DDB94FEA3C00000A40EBB2
:100D8000C25028BF1CF0FF0F4FEA400CE6D018BF3E
:100D9000BCF17F4F38BF7047EAE79CEA026F05D08D
:100DA00010EA5C0F08BF00F00040704710B500F07B
:100DB0007AF900BF64FBBE3E4FF47F0C1CEAD012F0
:100DC0001EBF1CEAD11392EA0C0F93EA0C0F00F03D
:100DD000858090EA010F48BF42F4807240F4000C15
:100DE00041F400002CF07F4120F07F4000B58142AB
:100DF000A2EB03020FF2081CACEB504EC0F1000056
:100E00009EF800E04FEA4E0E00FB0EFC38BF490092
:100E10004FEA2C1C02F5FA020CFB0EF34FEACE1E31
:100E20004FEA112C4FEAC1210EEB635E42EB2242E6
:100E30000EFB0CFC4FEA1C5300FB03114FEA112C74
:100E40004FEA01310EFB0CFC4FEADC4C00FB0C11AD
:100E5000C14228BF09184CEB03335DF804EB10EBDB
:100E6000410143EBC250B2F57C0F38BF704729D522
:100E700012F0F00F1CBF00F1C04000F000407047BE
:100E8000008182838485868788898B8C8D8E8F9163
:100E90009293959697999A9C9D9FA0A2A3A5A7A887
:100EA000AAACAEB0B2B3B5B7B9BCBEC0C2C5C7C9B3
:100EB000CCCED1D4D7D9DCDFE2E6E9ECF0F3F7FA17
:100EC000FE0000004FEA400C0CF1807CBCF17E4F2C
:100ED00028BF7047B0F1C04000F02BB990EA010F75
:100EE0000CEAD11348BF42F48072624538BF6345B3
:100EF00007D213F47F0F16D080EA010000F0004003
:100F0000704710B500F0CFF8097EFC3E00F005B840
:100F100080EA010000F00040704780EA010000F024
:100F2000004000F006B912F47F0F04BF024870477A
:100F300080EA010000F0FDB80000C07FC10DD1F1D2
:100F40009E0206DB4FEA002343F0004323FA02F03F
:100F50007047004207D54FEA4001B1F1FE4F02D27F
:100F60004FF00000704710B500F09DF849922480C2
:100F7000002070476FEA200070470000B0FA80F34D
:100F800010FA03F2C3F19D030AD0D90501EB122038
:100F9000530638BF704700F1010008BF20F0010080
:100FA000704700004FF47F0C1CEAD0121EBF1CEAF1
:100FB000D11392EA0C0F93EA0C0F00F0478090EAED
:100FC000010F48BF42F480724FF0004C4CEA002001
:100FD0004CEA012102EB0302A0FB0113A2F500027F
:100FE000002918BF43F001035B0028BF4FEA330319
:100FF00042EB22425FEA132C4CEBC2502EBFBCEBFB
:10100000436FB2F57C0F70474FEA036CBCF1004FA1
:1010100008BF20F00100B2F57C0F38BF70470BD538
:1010200082F0FF0212F5803FC8BF704700F1C04058
:10103000D8BF00F00040704700F5000C5FEA4C0C90
:1010400048BF7047B0F1C04000F073B890EA010F9C
:101050000CEAD11348BF42F48072624538BF634541
:1010600004D280EA010000F00040704710B500F0A3
:101070001AF800BF8900013E00F007B800F009B877
:101080005FEA410C5FEA1C6C08D080EA010000F0C6
:1010900050B85FEA400C5FEA1C6CF6D14FF000409C
:1010A000A0F5800070470EF1020E2EF0030E5EF8E0
:1010B000044B244204D44FEA4102B2F17F4F11D8CD
:1010C0004FEA4003B3F17F4F0CD80ED14FEAD07CEA
:1010D000B2F17F4F0CEB4C0C0CF1020C08BF4CEB47
:1010E000D17C04E04FF0080C01E04FEAD17C0CEB1E
:1010F0004C0324FA03F404F00704B4F1040C06D200
:101100000EEB840CBDE810404CF0010C6047DFE8AA
:101110000CF0070802024FF00040A0F5800010BD5F
:101120000846420018BFD2F1807288BF00F000402C
:1011300010BDFF2141EAD050C005704780F000404B
:1011400090EA010F7FF5DDAD81F0004100F007B8B6
:1011500090EA010F48BF81F000413FF5D2AD421A3D
:1011600004D882F00042A0EB020011444FEAD052B2
:101170004FF07F4C1CEA410FA2EBD15318BF9CEA01
:10118000026F4AD04FF0004C4CEA00204CEA01219B
:1011900021FA03FCB0EB0C0C0FD412F0FE0F36D08A
:1011A0005FEA4C001DD5001240EBC25038BF7047BB
:1011B0001CF03F0F18BF70470BE0A2F101025FEA7D
:1011C0001C2040EBC25038BF70471CF07F0F18BF87
:1011D0007047C3F12003994014BF401E20F0010066
:1011E000704780084FEA122308BF7047B0FA80FCAE
:1011F000A2EB0C02CCF1280C60FA0CF093EA122F4F
:1012000004BF00EBC25070474FEAC3707047130A27
:101210005FEADC1008BF7047F6E79CEA026F04D073
:1012200010EA5C0F08BF0020704710B5FFF73BFFC6
:1012300040DFF63E81F00040704700005C1200087D
:1012400000000020100000006C0100086C12000873
:10125000100000202807000088010008000000009E
:0C12600000000000000001000000000081
:0400000508000131BD
:00000001FF
